:04000000FEEF7FF0A0
:10EC2000526A0001A4EF78F0026E025020EC76F0F8
:10EC300012003901A7A902D0010E1200000E120025
:10EC4000016E3901A7ABFDD7600007F0D2FD1200BD
:10EC50003901A7A9FDD73D01E1A702D0DB9FDB8FDA
:10EC6000D0511200600E3901D96F000EDB6F000E1B
:10EC7000DD6F060EDF6F000EDE6F1200000E58EC27
:10EC800076F0010E58EC76F0000E67EC76F0010E8F
:10EC900067EC76F0120078EC76F082EC77F032ECEC
:10ECA00076F0C5EC76F0A5EC76F04CEC78F012003E
:10ECB000016E0150D8A404D03F01C291BA81120064
:10ECC0000104D8A412003F01C293BA831200016E5E
:10ECD0000150D8A405D03F01C2893A0141891200F0
:10ECE0000104D8A412003F01C28B3A01418B1200EB
:10ECF000000E3901C06F000EC16F000EC26F000E12
:10ED0000C36F000EC46F000EC56F000EC66F000EFD
:10ED1000C76F1200600004F007F0600008F008F010
:10ED20000BD060001FF0D9FF600023F0DAFF600015
:10ED30000FF0DFFF074A082A0506D8A006060528B7
:10ED4000F0E10628D8B41200ECD7000E3D01EC6FBC
:10ED5000000EED6F000EEE6F000EEF6F000EF06F05
:10ED6000000EF16FB00EF26F800EF36F000EF46FB5
:10ED7000440EF56F000EF66F000EF76F000EF86F81
:10ED8000000EF96F000EFA6F1200000E3D01D46FF5
:10ED9000000ED56F000ED66F000ED76F000ED86F25
:10EDA000000ED96FB00EDA6F800EDB6F000EDC6FD5
:10EDB000400EDD6F030EDE6F000EDF6F000EE06FA2
:10EDC000000EE16F000EE26F12000A500B10D8B473
:10EDD00018D0010E0C6E04D0D8900A360B360C2ACF
:10EDE0000BAEFAD70A50085C0B500958D8A004D0D3
:10EDF0000A50085E0B50095AD8900B320A320C2E7A
:10EE0000F1D7600020F008F0600024F009F0120053
:10EE1000026E0250D8A40ED03F01BAA102D0010E5A
:10EE200001D0000EFF0A016EBA510118FE0B011845
:10EE3000BA6F12000204D8A412003F01BAA302D094
:10EE4000010E01D0000EFF0A016E0146BA510118F1
:10EE5000FD0B0118BA6F120060000CF009F06000A1
:10EE600010F00AF0600004F007F0600008F008F00D
:10EE700015D0600027F0D9FF60002BF0DAFFDF50DB
:10EE80000B6E094A0A2A60001FF0D9FF600023F0C8
:10EE9000DAFF60002FF0DFFF074A082A0506D8A036
:10EEA00006060528E6E10628D8B41200E2D7000ECF
:10EEB000066E000E056E03500410D8B41CD0010E6F
:10EEC000076E04D0D89003360436072A04AEFAD76A
:10EED000D890053606360350015C04500258D8A07D
:10EEE00005D00350015E0450025A0580D8900432C8
:10EEF0000332072EEDD7600014F001F0600018F027
:10EF000002F01200000E3F01BA6F000EBB6F000E40
:10EF1000BC6FFC0EC26FEE0EC36FBF0EC46F1F0E30
:10EF20003A01606FE60E506FCC0E406F000E816F9D
:10EF3000000E516F300E416F000E616F000E426F78
:10EF4000000E526F000E626F436953696369150EBC
:10EF5000EA6F160E086F0B0EED6F330E0C6F130E6B
:10EF6000166F170EE76F120019EC76F00009D8B48F
:10EF700043D028EC76F0036E0F0E526031D00A0EAB
:10EF80000318D8A41FD0600048F104F00D0E0464EB
:10EF900001D00CD05250010DF3500124D96EF45021
:10EFA0000220DA6E300EDF6E042AF0D720EE0EF06B
:10EFB0000150D9260250DA22000EDF6E000E526E8A
:10EFC000010E12005250010DF3500124D96EF4507D
:10EFD0000220DA6E60000FF0DFFF5228526E0CD074
:10EFE00020EE0EF00150D9260250DA22000EDF6E1C
:10EFF000000E526E010E1200000E1200076E000E7F
:10F00000086E000E096E000E0A6E000E0B6E0750A1
:10F01000056E066AD89005360636D890053606364F
:10F02000D89005360636600014F00CF0600018F039
:10F030000DF0000E0DBEFF0E0E6E0F6E600004F0A0
:10F0400005F0050E066ED8900532062EFCD7055049
:10F050000C240C6E000E0D200D6E000E0E200E6E98
:10F06000000E0F200F6E600030F008F0600034F0EA
:10F0700009F0600038F00AF060003CF00BF060002E
:10F0800020F001F0600024F002F0600028F003F0AE
:10F0900060002CF004F01200800E3F018F6F8E5143
:10F0A000E00B800AD8A4FBD7000E916F000E370149
:10F0B000006FBA69BB69B869E30EB96FBE69BF6911
:10F0C000BC69E30EBD6F000EA26F000EA36F240E8D
:10F0D000A06F600EA16F000EA66F000EA76F000E4E
:10F0E000A46F000EA56F000EAA6F000EAB6F000E8E
:10F0F000A86F000EA96F000EAE6F000EAF6F000E6E
:10F10000AC6F000EAD6F000EB26F000EB36F000E4D
:10F11000B06F000EB16F000EB66F000EB76F000E2D
:10F12000B46F000EB56F0F0E036F980E046F010ED3
:10F13000056F000E3F018F6F6F0038FE01F0E00E8B
:10F140000116D8B41200F8D7270E016E000E026E19
:10F15000000E046E000E036E000E066E0F0E056E9E
:10F160008AEC76F04BEC76F03EEC76F0F80E0D6E15
:10F17000FF0E0E6E27EC7AF0DE0E0D6EFF0E0E6E99
:10F1800027EC7AF0CA0E0D6EFF0E0E6E27EC7AF0A9
:10F19000530E0D6EFE0E0E6E27EC7AF0270E016EEA
:10F1A000000E026EB4EC77F00009D8B43FD0980E90
:10F1B0000D6EFF0E0E6E270E0F6E000E106E27ECFA
:10F1C0007AF0360E016E000E026E270E036E000EF0
:10F1D000046E000E066E0E0E056E2CEC77F0360EE9
:10F1E000136E000E146E87EC7DF00009D8B40AD0BF
:10F1F000390E0D6EFF0E0E6E27EC7AF0000E08EC45
:10F2000077F006D0A70E0D6EFE0E0E6E27EC7AF08C
:10F21000270E016E000E026E000E046E000E036ECD
:10F22000000E066E0F0E056E8AEC76F0440E146E1C
:10F23000000E156E40EC7CF00009D8B4AFD7B20ECA
:10F240000D6EFF0E0E6E27EC7AF0D70E0D6EFE0ED1
:10F250000E6E600010F10FF0106A27EC7AF0010ECC
:10F2600008EC77F04404D8A417D0190E0D6EFF0EE9
:10F270000E6E27EC7AF0790E0D6EFF0E0E6E20EEFC
:10F2800044F010EE0FF00D0E6F006FFFE3FFE80685
:10F29000FBE227EC7AF082D7F90E0D6EFE0E0E6EB1
:10F2A00027EC7AF0590E0D6EFF0E0E6E20EE44F034
:10F2B00010EE0FF00D0E6F006FFFE3FFE806FBE2AC
:10F2C00027EC7AF06BD7096E000E0A6E000E0B6EFB
:10F2D000000E0C6E000E0D6E000E106E000E116E04
:10F2E000000E126E000E136E0350030B0E6E0338E9
:10F2F000E842070B0F6E0250056E066AD89005367D
:10F300000636D89005360636D890053606366000A3
:10F3100014F010F0600018F011F0000E11BEFF0E96
:10F32000126E136E0F501024106E000E1120116E0D
:10F33000000E1220126E000E1320136E600040F0BB
:10F3400005F0600044F006F0600048F007F060004F
:10F350004CF008F0020ED89005360636073608360F
:10F36000E82EF9D7600014F010F0600018F011F0EA
:10F3700060001CF012F0600020F013F00E5010241A
:10F38000106E000E1120116E000E1220126E000E73
:10F390001320136E600040F006F0600044F007F0A8
:10F3A000600048F008F0056A600014F010F060009A
:10F3B00018F011F060001CF012F0600020F013F063
:10F3C00009501024106E000E1120116E000E122034
:10F3D000126E000E1320136E600040F006F0600005
:10F3E00044F007F0600048F008F0056A600014F08F
:10F3F00010F0600018F011F060001CF012F06000D6
:10F4000020F013F001501024106E000E1120116E28
:10F41000000E1220126E000E1320136E600040F0DA
:10F420000AF0600044F00BF0600048F00CF060005F
:10F430004CF00DF0600028F001F060002CF002F0BC
:10F44000600030F003F0600034F004F012000F0EA2
:10F45000206E000E216EE3D0250E2618D8B404D0FD
:10F46000265014EC76F0DBD0000E1E6E4BD0600000
:10F4700083F0D9FF600087F0DAFF6F0078FF22F099
:10F480006F0074FF23F0020E2026000E212222506E
:10F490002310D8A41ED0F10E226EFF0E236E19D0B9
:10F4A00060008BF0F6FF60008FF0F7FF000EF86E43
:10F4B0000F0EF76403D00800F55007D06F00DBFF94
:10F4C000E1FF6F00DFFFE2FFE75014EC76F0224A25
:10F4D000232A60008BF0F6FF60008FF0F7FF000E2C
:10F4E000F86E0F0EF76403D00800F55007D06F00D8
:10F4F000DBFFE1FF6F00DFFFE2FFE7500009D8B458
:10F500008ED0CED7600037F0F6FF60003BF0F7FFFB
:10F510000D4A0E2AF86A08006F00D4FF26F0265024
:10F52000000AD8B41200640AD8B407D00D0AD8B4BF
:10F5300004D01A0AD8B49BD772D0600083F0D9FFE8
:10F54000600087F0DAFF6F0078FF24F06F0074FF2F
:10F5500025F0020E2026000E212225AE06D0030E35
:10F560001E12246C251ED8B0252A010E266E050E0B
:10F570002618D8B415D02650020D490EF324F66E85
:10F58000FE0EF420F76EF86A000EF8220900F5501E
:10F59000245C0900F5502558D8A002D0262AE7D7C8
:10F5A000600078F01DF0030E1D16D8B403D02D0EA8
:10F5B00014EC76F0600098F01FF02DD01F50020D73
:10F5C000490EF324F66EFE0EF420F76EF86A000E74
:10F5D000F82209006F00D4FF03F00A006F00D4FF87
:10F5E00004F0600090F001F0600094F002F057EC3D
:10F5F00077F0600004F008F0600008F009F0000EF9
:10F600000B6E0A0E0A6EE5EC76F00850300F266E8F
:10F61000265014EC76F01F061F28D8A4CFD7600020
:10F6200037F0F6FF60003BF0F7FF0D4A0E2AF86A4C
:10F6300008006F00D4FF26F02650D8B412000CD773
:10F64000000E126E020E0518D8A4B5D0600023F08B
:10F65000D9FF600027F0DAFF600007F0DFFF6000ED
:10F6600004F00EF0600008F00FF060000CF010F0F5
:10F67000600010F011F060003CF00EF0600040F00F
:10F680000FF0600044F010F0116A600038F001F0F3
:10F6900060003CF002F0600040F003F0600044F0D5
:10F6A00004F060001BF0D9FF60001FF0DAFF60007B
:10F6B00007F0DFFF600004F00EF0600008F00FF0CC
:10F6C00060000CF010F0600010F011F060003CF0F1
:10F6D0000EF0600040F00FF0600044F010F0116A8E
:10F6E000600038F001F060003CF002F0600040F093
:10F6F00003F0600044F004F00150030B126E600050
:10F7000004F00EF0600008F00FF060000CF010F054
:10F71000600010F011F0030ED8900E360F36103640
:10F720001136E82EF9D7600038F001F060003CF0A7
:10F7300002F0600040F003F0600044F004F001507B
:10F74000E00B1224126E1250080F126E1250EB0BC7
:10F75000600033F0D9FF600037F0DAFFDF6E600041
:10F7600004F00EF0600008F00FF060000CF010F0F4
:10F77000600010F011F060003CF00EF0600040F00E
:10F780000FF0600044F010F0116A600038F001F0F2
:10F7900060003CF002F0600040F003F0600044F0D4
:10F7A00004F060002BF0D9FF60002FF0DAFF60005A
:10F7B00007F0DFFF120060001BF0D9FF60001FF0B0
:10F7C000DAFF000EDF6E600023F0D9FF600027F043
:10F7D000DAFF000EDF6E600004F00EF0600008F04B
:10F7E0000FF060000CF010F0600010F011F0050E4A
:10F7F000D8900E360F3610361136E82EF9D7600045
:10F8000038F001F060003CF002F0600040F003F0DE
:10F81000600044F004F0600033F0D9FF600037F07E
:10F82000DAFF600007F0DFFF600004F00EF0600018
:10F8300008F00FF060000CF010F0600010F011F014
:10F8400060003CF00EF0600040F00FF0600044F00B
:10F8500010F0116A600038F001F060003CF002F036
:10F86000600040F003F0600044F004F060002BF012
:10F87000D9FF60002FF0DAFF600007F0DFFF120011
:10F88000000E166E3F0180AF9ED082A727D0600089
:10F8900053F0D9FF600057F0DAFF020EDF6E6F0001
:10F8A00010FE01F06F0004FE02F06F0008FE03F08E
:10F8B000835163EC79F020EE01F01450D9261550F5
:10F8C000DA22600007F0DEFF60000BF0DEFF600070
:10F8D0000FF0DEFF600013F0DEFF21D0600053F078
:10F8E000D9FF600057F0DAFF010EDF6E6F0008FEEF
:10F8F00001F03F018151FEEC77F020EE01F0145051
:10F90000D9261550DA22600007F0DEFF60000BF008
:10F91000DEFF60000FF0DEFF600013F0DEFF20EE80
:10F9200005F01450D9261550DA226F0017FEDFFFBC
:10F9300020EE06F01450D9261550DA226F001BFE77
:10F94000DFFF20EE07F01450D9261550DA226F00A1
:10F950001FFEDFFF20EE08F01450D9261550DA22E2
:10F960006F0023FEDFFF20EE09F01450D92615505A
:10F97000DA226F0027FEDFFF20EE0AF01450D926AE
:10F980001550DA226F002BFEDFFF20EE0BF0145033
:10F99000D9261550DA226F002FFEDFFF20EE0CF083
:10F9A0001450D9261550DA226F0033FEDFFF20EE07
:10F9B0000DF01450D9261550DA226F0037FEDFFF04
:10F9C0003F01809FA0D03701F0AF9FD0F2A727D092
:10F9D000600053F0D9FF600057F0DAFF020EDF6ECF
:10F9E0006D00D0FF01F06D00C4FF02F06D00C8FF94
:10F9F00003F0F35163EC79F020EE01F01450D926B6
:10FA00001550DA22600007F0DEFF60000BF0DEFF29
:10FA100060000FF0DEFF600013F0DEFF21D0600019
:10FA200053F0D9FF600057F0DAFF010EDF6E6D0072
:10FA3000C8FF01F03701F151FEEC77F020EE01F044
:10FA40001450D9261550DA22600007F0DEFF60005E
:10FA50000BF0DEFF60000FF0DEFF600013F0DEFF52
:10FA600020EE05F01450D9261550DA226D00D7FF8C
:10FA7000DFFF20EE06F01450D9261550DA226D0073
:10FA8000DBFFDFFF20EE07F01450D9261550DA22F5
:10FA90006D00DFFFDFFF20EE08F01450D92615506F
:10FAA000DA226D00E3FFDFFF20EE09F01450D926C3
:10FAB0001550DA226D00E7FFDFFF20EE0AF0145048
:10FAC000D9261550DA226D00EBFFDFFF20EE0BF098
:10FAD0001450D9261550DA226D00EFFFDFFF20EE1B
:10FAE0000CF01450D9261550DA226D00F3FFDFFF19
:10FAF00020EE0DF01450D9261550DA226D00F7FFD4
:10FB0000DFFF3701F09F010E166E16501200000E37
:10FB1000166E000E176E000E186E000E196E000E97
:10FB2000156E3701E0B783D020EE01F01350D926CF
:10FB30001450DA226F0078FF01F06F0078FF02F0B6
:10FB40006F0078FF03F06F0078FF04F060004FF063
:10FB5000D9FF600053F0DAFFDF50056E160E066E17
:10FB6000000E076E170E086E000E096E180E0A6E54
:10FB7000000E0B6E190E0C6E000E0D6E20EC7BF05D
:10FB800060005BF0E3F760005FF0E4F7600063F0B3
:10FB9000E1F7600067F0E2F720EE05F01350D92698
:10FBA0001450DA22DF503701E56F20EE06F01350D3
:10FBB000D9261450DA22DF50E66F20EE07F01350FA
:10FBC000D9261450DA22DF50E76F20EE08F01350E8
:10FBD000D9261450DA22DF50E86F20EE09F01350D6
:10FBE000D9261450DA22DF50E96F20EE0AF01350C4
:10FBF000D9261450DA22DF50EA6F20EE0BF01350B2
:10FC0000D9261450DA22DF50EB6F20EE0CF013509F
:10FC1000D9261450DA22DF50EC6F20EE0DF013508D
:10FC2000D9261450DA22DF50ED6FE08709D1D0B722
:10FC300083D020EE01F01350D9261450DA226F0041
:10FC400078FF01F06F0078FF02F06F0078FF03F09B
:10FC50006F0078FF04F060004FF0D9FF600053F0B0
:10FC6000DAFFDF50056E160E066E000E076E170ED9
:10FC7000086E000E096E180E0A6E000E0B6E190E3D
:10FC80000C6E000E0D6E20EC7BF060005BF0D3F785
:10FC900060005FF0D4F7600063F0D1F7600067F0B8
:10FCA000D2F720EE05F01350D9261450DA22DF5097
:10FCB0003701D56F20EE06F01350D9261450DA2202
:10FCC000DF50D66F20EE07F01350D9261450DA22F9
:10FCD000DF50D76F20EE08F01350D9261450DA22E7
:10FCE000DF50D86F20EE09F01350D9261450DA22D5
:10FCF000DF50D96F20EE0AF01350D9261450DA22C3
:10FD0000DF50DA6F20EE0BF01350D9261450DA22B0
:10FD1000DF50DB6F20EE0CF01350D9261450DA229E
:10FD2000DF50DC6F20EE0DF01350D9261450DA228C
:10FD3000DF50DD6FD08784D0C0B784D020EE01F0D3
:10FD40001350D9261450DA226F0078FF01F06F00AB
:10FD500078FF02F06F0078FF03F06F0078FF04F087
:10FD600060004FF0D9FF600053F0DAFFDF50056EFE
:10FD7000160E066E000E076E170E086E000E096E48
:10FD8000180E0A6E000E0B6E190E0C6E000E0D6E24
:10FD900020EC7BF060005BF0C3F760005FF0C4F71D
:10FDA000600063F0C1F7600067F0C2F720EE05F075
:10FDB0001350D9261450DA22DF503701C56F20EED8
:10FDC00006F01350D9261450DA22DF50C66F20EE09
:10FDD00007F01350D9261450DA22DF50C76F20EEF7
:10FDE00008F01350D9261450DA22DF50C86F20EEE5
:10FDF00009F01350D9261450DA22DF50C96F20EED3
:10FE00000AF01350D9261450DA22DF50CA6F20EEC0
:10FE10000BF01350D9261450DA22DF50CB6F20EEAE
:10FE20000CF01350D9261450DA22DF50CC6F20EE9C
:10FE30000DF01350D9261450DA22DF50CD6FC08751
:10FE4000010E156E155012000001000A006400E852
:10FE500003102753656E6420313420627974657312
:10FE600020636F72726573706F6E64696E67207461
:10FE70006F2043414E206D7367206672616D65206F
:10FE80007468617420676F696E6720746F206265A3
:10FE90002073656E7420746F207468652043414E32
:10FEA000206275732E0A0043414E206D65737361A5
:10FEB00067652063616E6E6F742062652073656E86
:10FEC00074202866756C6C205478204275666665CF
:10FED000722F73292E0A0043414E206D65737361A2
:10FEE0006765207265636569766564206F66207456
:10FEF0007970653A2025640A0043414E206D657390
:10FF000073616765207265636569766564206578ED
:10FF100074656E6465642E0A0043414E206D6573FE
:10FF200073616765207265636569766564207374C3
:10FF3000616E646172642E0A0043414E206D6573E8
:10FF400073616765207375636365737366756C6C45
:10FF5000792073656E742E0A0043414E206D6573DF
:10FF60007361676520726563656976656420667292
:10FF7000616D653A2025730A0043414E206D65731B
:10FF80007361676520726563656976656420667272
:10FF9000616D653A202573000A53656E64696E676A
:10FFA0002043414E204672616D653A20222573221E
:10FFB0000A000A43414E206D6573736167652072C4
:10FFC000656365697665642E0A002D2D2D2D2D2D16
:10FFD0002D2D2D2D2D2D2D2D2D2D2D2D0A00205586
:10FFE00041525420746F2043414E20746573740A4B
:10FFF00000286E756C6C29000A0A000010EF76F07C
:020000040020DA
:10000000FF0FFF0FFF0FFF0FFF0FFF0FFF0FFF0F80
:020000040030CA
:0A0000008CFFF7FF9FFFFFFFFFFFDB
:00000001FF
